{
  "contractName": "DutchAuction",
  "abi": [
    {
      "anonymous": false,
      "inputs": [
        {
          "indexed": false,
          "internalType": "uint256",
          "name": "_bid_id",
          "type": "uint256"
        }
      ],
      "name": "BidCreated",
      "type": "event"
    },
    {
      "anonymous": false,
      "inputs": [
        {
          "indexed": false,
          "internalType": "address",
          "name": "_from",
          "type": "address"
        },
        {
          "indexed": false,
          "internalType": "uint256",
          "name": "_value",
          "type": "uint256"
        }
      ],
      "name": "DepositEth",
      "type": "event"
    },
    {
      "anonymous": false,
      "inputs": [
        {
          "indexed": false,
          "internalType": "address",
          "name": "__from",
          "type": "address"
        },
        {
          "indexed": false,
          "internalType": "bytes32",
          "name": "_symbol",
          "type": "bytes32"
        },
        {
          "indexed": false,
          "internalType": "uint256",
          "name": "_value",
          "type": "uint256"
        }
      ],
      "name": "DepositToken",
      "type": "event"
    },
    {
      "anonymous": false,
      "inputs": [
        {
          "indexed": false,
          "internalType": "uint256",
          "name": "_offer_id",
          "type": "uint256"
        },
        {
          "indexed": false,
          "internalType": "uint256",
          "name": "_bid_id",
          "type": "uint256"
        },
        {
          "indexed": false,
          "internalType": "uint256",
          "name": "_eth_price",
          "type": "uint256"
        },
        {
          "indexed": false,
          "internalType": "bytes32",
          "name": "_symbol",
          "type": "bytes32"
        },
        {
          "indexed": false,
          "internalType": "uint256",
          "name": "_token_quantity",
          "type": "uint256"
        }
      ],
      "name": "Matched",
      "type": "event"
    },
    {
      "anonymous": false,
      "inputs": [
        {
          "indexed": false,
          "internalType": "uint256",
          "name": "_offer_id",
          "type": "uint256"
        },
        {
          "indexed": false,
          "internalType": "bytes32",
          "name": "_symbol",
          "type": "bytes32"
        },
        {
          "indexed": false,
          "internalType": "uint256",
          "name": "_quantity",
          "type": "uint256"
        },
        {
          "indexed": false,
          "internalType": "uint256",
          "name": "_offer_unit_price_eth",
          "type": "uint256"
        }
      ],
      "name": "OfferCreated",
      "type": "event"
    },
    {
      "anonymous": false,
      "inputs": [
        {
          "indexed": true,
          "internalType": "address",
          "name": "previousOwner",
          "type": "address"
        },
        {
          "indexed": true,
          "internalType": "address",
          "name": "newOwner",
          "type": "address"
        }
      ],
      "name": "OwnershipTransferred",
      "type": "event"
    },
    {
      "anonymous": false,
      "inputs": [
        {
          "indexed": false,
          "internalType": "address",
          "name": "_to",
          "type": "address"
        },
        {
          "indexed": false,
          "internalType": "uint256",
          "name": "_value",
          "type": "uint256"
        }
      ],
      "name": "withdrawEth",
      "type": "event"
    },
    {
      "anonymous": false,
      "inputs": [
        {
          "indexed": false,
          "internalType": "address",
          "name": "to",
          "type": "address"
        },
        {
          "indexed": false,
          "internalType": "bytes32",
          "name": "_symbol",
          "type": "bytes32"
        },
        {
          "indexed": false,
          "internalType": "uint256",
          "name": "_value",
          "type": "uint256"
        }
      ],
      "name": "withdrawToken",
      "type": "event"
    },
    {
      "stateMutability": "payable",
      "type": "fallback"
    },
    {
      "inputs": [
        {
          "internalType": "address",
          "name": "",
          "type": "address"
        },
        {
          "internalType": "bytes32",
          "name": "",
          "type": "bytes32"
        }
      ],
      "name": "accountBalances",
      "outputs": [
        {
          "internalType": "uint256",
          "name": "liquid",
          "type": "uint256"
        },
        {
          "internalType": "uint256",
          "name": "locked",
          "type": "uint256"
        }
      ],
      "stateMutability": "view",
      "type": "function"
    },
    {
      "inputs": [],
      "name": "bid_count",
      "outputs": [
        {
          "internalType": "uint256",
          "name": "",
          "type": "uint256"
        }
      ],
      "stateMutability": "view",
      "type": "function"
    },
    {
      "inputs": [
        {
          "internalType": "uint256",
          "name": "",
          "type": "uint256"
        }
      ],
      "name": "bids",
      "outputs": [
        {
          "internalType": "uint256",
          "name": "id",
          "type": "uint256"
        },
        {
          "internalType": "address",
          "name": "created_by",
          "type": "address"
        },
        {
          "internalType": "address",
          "name": "bid_owner",
          "type": "address"
        },
        {
          "internalType": "bytes32",
          "name": "symbol",
          "type": "bytes32"
        },
        {
          "internalType": "uint256",
          "name": "quantity",
          "type": "uint256"
        },
        {
          "internalType": "uint256",
          "name": "remaining_quantity",
          "type": "uint256"
        },
        {
          "internalType": "uint256",
          "name": "bid_unit_price_eth",
          "type": "uint256"
        },
        {
          "internalType": "uint8",
          "name": "v",
          "type": "uint8"
        },
        {
          "internalType": "bytes32",
          "name": "r",
          "type": "bytes32"
        },
        {
          "internalType": "bytes32",
          "name": "s",
          "type": "bytes32"
        },
        {
          "internalType": "uint256",
          "name": "creation_time",
          "type": "uint256"
        },
        {
          "internalType": "enum DutchAuction.BidStatusPrimary",
          "name": "primary_status",
          "type": "uint8"
        },
        {
          "internalType": "enum DutchAuction.BidStatusSecondary",
          "name": "secondary_status",
          "type": "uint8"
        }
      ],
      "stateMutability": "view",
      "type": "function"
    },
    {
      "inputs": [
        {
          "internalType": "address",
          "name": "",
          "type": "address"
        }
      ],
      "name": "ethBalances",
      "outputs": [
        {
          "internalType": "uint256",
          "name": "liquid",
          "type": "uint256"
        },
        {
          "internalType": "uint256",
          "name": "locked",
          "type": "uint256"
        }
      ],
      "stateMutability": "view",
      "type": "function"
    },
    {
      "inputs": [
        {
          "internalType": "enum StateMachine.Stages",
          "name": "_stage",
          "type": "uint8"
        }
      ],
      "name": "godModeSetStage",
      "outputs": [],
      "stateMutability": "nonpayable",
      "type": "function"
    },
    {
      "inputs": [],
      "name": "lastModifiedTime",
      "outputs": [
        {
          "internalType": "uint256",
          "name": "",
          "type": "uint256"
        }
      ],
      "stateMutability": "view",
      "type": "function"
    },
    {
      "inputs": [],
      "name": "offer_count",
      "outputs": [
        {
          "internalType": "uint256",
          "name": "",
          "type": "uint256"
        }
      ],
      "stateMutability": "view",
      "type": "function"
    },
    {
      "inputs": [
        {
          "internalType": "uint256",
          "name": "",
          "type": "uint256"
        }
      ],
      "name": "offers",
      "outputs": [
        {
          "internalType": "uint256",
          "name": "id",
          "type": "uint256"
        },
        {
          "internalType": "address",
          "name": "created_by",
          "type": "address"
        },
        {
          "internalType": "bytes32",
          "name": "symbol",
          "type": "bytes32"
        },
        {
          "internalType": "uint256",
          "name": "quantity",
          "type": "uint256"
        },
        {
          "internalType": "uint256",
          "name": "remaining_quantity",
          "type": "uint256"
        },
        {
          "internalType": "uint256",
          "name": "offer_unit_price_eth",
          "type": "uint256"
        },
        {
          "internalType": "uint256",
          "name": "creation_time",
          "type": "uint256"
        },
        {
          "internalType": "enum DutchAuction.OfferStatus",
          "name": "status",
          "type": "uint8"
        }
      ],
      "stateMutability": "view",
      "type": "function"
    },
    {
      "inputs": [],
      "name": "owner",
      "outputs": [
        {
          "internalType": "address",
          "name": "",
          "type": "address"
        }
      ],
      "stateMutability": "view",
      "type": "function"
    },
    {
      "inputs": [],
      "name": "probeStage",
      "outputs": [],
      "stateMutability": "nonpayable",
      "type": "function"
    },
    {
      "inputs": [],
      "name": "renounceOwnership",
      "outputs": [],
      "stateMutability": "nonpayable",
      "type": "function"
    },
    {
      "inputs": [],
      "name": "stage",
      "outputs": [
        {
          "internalType": "enum StateMachine.Stages",
          "name": "",
          "type": "uint8"
        }
      ],
      "stateMutability": "view",
      "type": "function"
    },
    {
      "inputs": [
        {
          "internalType": "address",
          "name": "newOwner",
          "type": "address"
        }
      ],
      "name": "transferOwnership",
      "outputs": [],
      "stateMutability": "nonpayable",
      "type": "function"
    },
    {
      "inputs": [
        {
          "internalType": "bytes32",
          "name": "",
          "type": "bytes32"
        }
      ],
      "name": "whitelistedTokens",
      "outputs": [
        {
          "internalType": "address",
          "name": "",
          "type": "address"
        }
      ],
      "stateMutability": "view",
      "type": "function"
    },
    {
      "stateMutability": "payable",
      "type": "receive"
    },
    {
      "inputs": [
        {
          "internalType": "address",
          "name": "_wallet_address",
          "type": "address"
        },
        {
          "internalType": "bytes32",
          "name": "_symbol",
          "type": "bytes32"
        }
      ],
      "name": "getAccountBalance",
      "outputs": [
        {
          "components": [
            {
              "internalType": "uint256",
              "name": "liquid",
              "type": "uint256"
            },
            {
              "internalType": "uint256",
              "name": "locked",
              "type": "uint256"
            }
          ],
          "internalType": "struct DutchAuction.Wallet",
          "name": "",
          "type": "tuple"
        }
      ],
      "stateMutability": "view",
      "type": "function"
    },
    {
      "inputs": [
        {
          "internalType": "bytes32",
          "name": "_symbol",
          "type": "bytes32"
        },
        {
          "internalType": "address",
          "name": "_tokenAddress",
          "type": "address"
        }
      ],
      "name": "addToken",
      "outputs": [],
      "stateMutability": "nonpayable",
      "type": "function"
    },
    {
      "inputs": [],
      "name": "depositETH",
      "outputs": [],
      "stateMutability": "payable",
      "type": "function"
    },
    {
      "inputs": [
        {
          "internalType": "uint256",
          "name": "_amount",
          "type": "uint256"
        }
      ],
      "name": "withdrawETH",
      "outputs": [],
      "stateMutability": "payable",
      "type": "function"
    },
    {
      "inputs": [
        {
          "internalType": "uint256",
          "name": "_amount",
          "type": "uint256"
        },
        {
          "internalType": "bytes32",
          "name": "_symbol",
          "type": "bytes32"
        }
      ],
      "name": "depositTokens",
      "outputs": [],
      "stateMutability": "nonpayable",
      "type": "function"
    },
    {
      "inputs": [
        {
          "internalType": "uint256",
          "name": "_amount",
          "type": "uint256"
        },
        {
          "internalType": "bytes32",
          "name": "_symbol",
          "type": "bytes32"
        }
      ],
      "name": "withdrawTokens",
      "outputs": [],
      "stateMutability": "nonpayable",
      "type": "function"
    },
    {
      "inputs": [
        {
          "internalType": "bytes32",
          "name": "_symbol",
          "type": "bytes32"
        },
        {
          "internalType": "uint256",
          "name": "_quantity",
          "type": "uint256"
        },
        {
          "internalType": "uint256",
          "name": "_offer_unit_price_eth",
          "type": "uint256"
        }
      ],
      "name": "createOffer",
      "outputs": [],
      "stateMutability": "nonpayable",
      "type": "function"
    },
    {
      "inputs": [
        {
          "internalType": "uint256",
          "name": "_offer_id",
          "type": "uint256"
        },
        {
          "internalType": "uint256",
          "name": "_new_unit_price",
          "type": "uint256"
        }
      ],
      "name": "decreaseOfferPrice",
      "outputs": [],
      "stateMutability": "nonpayable",
      "type": "function"
    },
    {
      "inputs": [
        {
          "internalType": "uint256",
          "name": "_offer_id",
          "type": "uint256"
        }
      ],
      "name": "reactivateOffer",
      "outputs": [],
      "stateMutability": "nonpayable",
      "type": "function"
    },
    {
      "inputs": [
        {
          "internalType": "uint256",
          "name": "_offer_id",
          "type": "uint256"
        }
      ],
      "name": "withdrawOffer",
      "outputs": [],
      "stateMutability": "nonpayable",
      "type": "function"
    },
    {
      "inputs": [
        {
          "internalType": "uint8",
          "name": "_v",
          "type": "uint8"
        },
        {
          "internalType": "bytes32",
          "name": "_r",
          "type": "bytes32"
        },
        {
          "internalType": "bytes32",
          "name": "_s",
          "type": "bytes32"
        }
      ],
      "name": "createBid",
      "outputs": [],
      "stateMutability": "nonpayable",
      "type": "function"
    },
    {
      "inputs": [
        {
          "internalType": "uint256",
          "name": "_bid_id",
          "type": "uint256"
        }
      ],
      "name": "withdrawBid",
      "outputs": [],
      "stateMutability": "nonpayable",
      "type": "function"
    },
    {
      "inputs": [
        {
          "internalType": "uint256",
          "name": "_bid_id",
          "type": "uint256"
        }
      ],
      "name": "reactivateBid",
      "outputs": [],
      "stateMutability": "nonpayable",
      "type": "function"
    },
    {
      "inputs": [
        {
          "internalType": "uint256",
          "name": "_bid_id",
          "type": "uint256"
        },
        {
          "internalType": "address",
          "name": "_bid_owner",
          "type": "address"
        },
        {
          "internalType": "bytes32",
          "name": "_symbol",
          "type": "bytes32"
        },
        {
          "internalType": "uint256",
          "name": "_quantity",
          "type": "uint256"
        },
        {
          "internalType": "uint256",
          "name": "_bid_unit_price_eth",
          "type": "uint256"
        }
      ],
      "name": "openBid",
      "outputs": [],
      "stateMutability": "nonpayable",
      "type": "function"
    },
    {
      "inputs": [
        {
          "internalType": "bytes32",
          "name": "_symbol",
          "type": "bytes32"
        }
      ],
      "name": "findCheapestOffer",
      "outputs": [
        {
          "internalType": "bool",
          "name": "",
          "type": "bool"
        },
        {
          "internalType": "uint256",
          "name": "",
          "type": "uint256"
        }
      ],
      "stateMutability": "view",
      "type": "function"
    },
    {
      "inputs": [],
      "name": "matchOffers",
      "outputs": [],
      "stateMutability": "nonpayable",
      "type": "function"
    }
  ],
  "bytecode": "0x6080806040523461006f576000543360018060a01b0382167f8be0079c531659141344cd1fd0a4f28419497f9722a3daafe3b4186f6b6457e0600080a3426001556001600160a81b0319163360ff60a01b191617600160a21b1760ff60a81b1916600055612b6e90816100758239f35b600080fdfe60806040526004361015610026575b361561001e5761001c612436565b005b61001c612436565b60003560e01c80630d1efb7b146120635780630eaaf4c814611f6957806335ee5f8e14611e86578063397a1e90146118ed5780633b3c6b06146118cf5780633cfba0e31461188c5780634423c5f1146117ae5780634f80028b14611780578063560a1f031461157c5780636f84d66b1461155e578063715018a6146115055780637a05a11e146114d4578063828fdb781461143f5780638610f045146113415780638a72ea6a146112ad5780638da5cb5b146112845780638dfa4245146111025780638f97994b14610f0057806393474b2f14610c615780639776aacf14610bbe578063a5a3ff9314610ba0578063aa3d9a1514610b6c578063c040e6b814610b3f578063d15b223e14610825578063d246487e1461066f578063e64fe3661461061e578063f08b838b14610452578063f14210a614610303578063f2fde38b146102425763f6326fb30361000e57600036600319011261023d5760015461012c81018091116102275742101561021a575b60ff60005460a81c166004811015610204576101b4901561250f565b33600052600460205260406000206101cd348254612429565b90557f7034bb05cfe54b0d147fc0574ed166101e7f0313eb404e113974fbe2a998ca83604051806101ff34338361257f565b0390a1005b634e487b7160e01b600052602160045260246000fd5b610222612a4a565b610198565b634e487b7160e01b600052601160045260246000fd5b600080fd5b3461023d57602036600319011261023d5761025b61239f565b610263612ae0565b6001600160a01b039081169081156102af576000548260018060a01b0319821617600055167f8be0079c531659141344cd1fd0a4f28419497f9722a3daafe3b4186f6b6457e0600080a3005b60405162461bcd60e51b815260206004820152602660248201527f4f776e61626c653a206e6577206f776e657220697320746865207a65726f206160448201526564647265737360d01b6064820152608490fd5b60208060031936011261023d576004359060015461012c810180911161022757421015610445575b60ff60005460a81c16600481101561020457610347901561250f565b336000526004815261036082604060002054101561259a565b336000526004815260406000206103788382546125dd565b9055600080808085335af13d15610440573d6001600160401b03811161042a57604051906103af601f8201601f19168501836124a6565b81526000833d92013e5b156103ef576040517f1b9a91a41e14a99bb19562f603c405921cea6821095fe03363001175a7bf8e8990806101ff85338361257f565b6064906040519062461bcd60e51b8252600482015260146024820152734661696c656420746f2073656e642066756e647360601b6044820152fd5b634e487b7160e01b600052604160045260246000fd5b6103b9565b61044d612a4a565b61032b565b3461023d57602036600319011261023d5760043560015461012c810180911161022757421015610611575b60ff60005460a81c16600481101561020457600261049b911461250f565b6104a860085482106127c8565b6104c96104b4826123b5565b50600101546001600160a01b0316331461280e565b600160ff600b6104d8846123b5565b50015460081c166104e8816123ea565b036105a65761051260066104fb836123b5565b5001546004610509846123b5565b500154906128b6565b336000526004602052604060002054106105615761055c81600b61053861001c946123b5565b5001805461ff001916905560056105096006610553846123b5565b500154926123b5565b6128c9565b60405162461bcd60e51b815260206004820152601f60248201527f496e73756666696369656e74206c6971756964204554482062616c616e6365006044820152606490fd5b60405162461bcd60e51b815260206004820152603f60248201527f54686973206269642069732063757272656e746c79206e6f742057495448445260448201527f41574e20736f2069742063616e6e6f74206265207265616374697661746564006064820152608490fd5b610619612a4a565b61047d565b3461023d57604036600319011261023d576001600160a01b0361063f61239f565b16600052600360205260406000206024356000526020526040806000206001815491015482519182526020820152f35b3461023d57604036600319011261023d5760043560249081359160015461012c810180911161081057421015610803575b60ff60005460a81c1660048110156107ee5760016106be911461250f565b6106cb60065483106126a4565b6106ec6106d7836123f4565b50600101546001600160a01b031633146126ea565b61070f60ff60076106fc856123f4565b50015416610709816123ea565b15612736565b821561079e576005610720836123f4565b50015483101561073b57506107366005916123f4565b500155005b60849060366040519162461bcd60e51b8352602060048401528201527f4e657720756e69742070726963652073686f756c64206265206c6f776572207460448201527568616e2063757272656e7420756e697420707269636560501b6064820152fd5b6084906040519062461bcd60e51b825260206004830152808201527f4e6577207072696365206d757374206265206120706f73697469766520696e7460448201526332b3b2b960e11b6064820152fd5b50634e487b7160e01b60009081526021600452fd5b61080b612a4a565b6106a0565b50634e487b7160e01b60009081526011600452fd5b3461023d5761083336612413565b9060015461012c810180911161022757421015610b32575b60ff60005460a81c16600481101561020457610867901561250f565b816000526020916002835260018060a01b0361088b816040600020541615156124c7565b8215610adc5781600052600284526040600020541692604051936370a0823160e01b855233600486015260249482818781855afa8015610a1f578590600090610aab575b6108db9250101561259a565b604051636eb1769f60e11b815233600482015230868201528281604481855afa8015610a1f578591600091610a7a575b5010610a2b57816000916064604051809481936323b872dd60e01b8352336004840152308b8401528960448401525af1908115610a1f576000916109f2575b50156109b7577f5743426a08abdcf1c4ba763fc583cc728f85ca731843fca7b716ae79eea3d3619350336000526003815260406000209082600052526040600020610996838254612429565b905560408051338152602081019290925281019190915280606081016101ff565b6064906015856040519262461bcd60e51b8452600484015282015274151bdad95b881d1c985b9cd9995c8819985a5b1959605a1b6044820152fd5b610a129150823d8411610a18575b610a0a81836124a6565b8101906125ea565b8561094a565b503d610a00565b6040513d6000823e3d90fd5b608482866040519162461bcd60e51b83526004830152808201527f546f6b656e4465706f7369743a20696e73756666696369656e7420616c6c6f77604482015263616e636560e01b6064820152fd5b809250848092503d8311610aa4575b610a9381836124a6565b8101031261023d578490518761090b565b503d610a89565b50508281813d8311610ad5575b610ac281836124a6565b8101031261023d57846108db91516108cf565b503d610ab8565b60405162461bcd60e51b815260048101859052602860248201527f43616e206f6e6c79206465706f73697420706f73697469766520696e746567656044820152671c88185b5bdd5b9d60c21b6064820152608490fd5b610b3a612a4a565b61084b565b3461023d57600036600319011261023d5760ff60005460a81c166040516004821015610204576020918152f35b3461023d57602036600319011261023d576004356000526002602052602060018060a01b0360406000205416604051908152f35b3461023d57600036600319011261023d576020600154604051908152f35b3461023d57604036600319011261023d57600435610bda612389565b90610be3612ae0565b6000818152600260205260409020546001600160a01b0391908216610c2557600090815260026020526040902080546001600160a01b03191691909216179055005b60405162461bcd60e51b8152602060048201526014602482015273546f6b656e20616c72656164792065786973747360601b6044820152606490fd5b3461023d57606036600319011261023d576004356024803560443560015461012c8101809111610eeb57421015610ede575b60ff60005460a81c166004811015610ec9576001610cb1911461250f565b836000526020916002835260018060a01b03610cd5816040600020541615156124c7565b33600052600384526040600020866000528452610cf9826040600020541015612602565b610d0482151561264c565b8215610e765785906006549060405191610d1d8361246f565b82528582013381526040830184815260608401868152608085019187835260a086019389855260c0870195428752610d5d8a60e08a019a60008c52612781565b600554600160401b811015610e6157806001610d7c92016005556123f4565b989098610e4c5751885590516001880180546001600160a01b0319169190921617905551600286015551600385015551600484015551600583015551600682015590517fb4df97b5bbfd2f007c79b295ea3c086461f02a2b19b6287ed449a06a38dc892d94608094909390929091600790910190610df9816123ea565b610e02816123ea565b60ff80198354169116179055600654966040519388855284015260408301526060820152a160018201809211610e385750600655005b634e487b7160e01b60009081526011600452fd5b8d634e487b7160e01b60005260006004526000fd5b8d634e487b7160e01b60005260416004526000fd5b60405162461bcd60e51b8152600481018590526026818701527f4f66666572207072696365206d757374206265206120706f7369746976652069604482015265373a32b3b2b960d11b6064820152608490fd5b83634e487b7160e01b60005260216004526000fd5b610ee6612a4a565b610c93565b83634e487b7160e01b60005260116004526000fd5b3461023d57610f0e36612413565b9060015461012c8101809111610227574210156110f5575b60ff60005460a81c16600481101561020457610f42901561250f565b816000526020916002835260018060a01b03610f66816040600020541615156124c7565b821561109e5733600052600384526040600020826000528452610f90836040600020541015612602565b816000526002845260406000205416336000526003845260406000208260005284526040600020610fc28482546125dd565b905583604051809263a9059cbb60e01b825281600081610fe689336004840161257f565b03925af1908115610a1f57600091611081575b5015611041576040805133815260208101929092528101919091527f063577528b6a04e7baf0209a367b8f3015ba3ef537417422d911d6549c2f04f0915080606081016101ff565b60405162461bcd60e51b81526004810184905260186024820152772ab730b13632903a37903a3930b739b332b9103a37b5b2b760411b6044820152606490fd5b6110989150843d8611610a1857610a0a81836124a6565b84610ff9565b60405162461bcd60e51b815260048101859052602960248201527f43616e206f6e6c7920776974686472617720706f73697469766520696e746567604482015268195c88185b5bdd5b9d60ba1b6064820152608490fd5b6110fd612a4a565b610f26565b3461023d57602036600319011261023d5760043560015461012c810180911161022757421015611277575b60ff60005460a81c16600481101561020457600161114b911461250f565b61115860065482106126a4565b600160ff6007611167846123f4565b50015416611174816123ea565b0361120257806111896106d761001c936123f4565b6111cb6002611197836123f4565b50015460036111a5846123f4565b500154903360005260036020526040600020906000526020526040600020541015612602565b60076111d6826123f4565b5001805460ff1916905560046111f960026111f0846123f4565b500154926123f4565b50015490612781565b60405162461bcd60e51b815260206004820152604160248201527f54686973206f666665722069732063757272656e746c79206e6f74205749544860448201527f445241574e20736f2069742063616e6e6f7420626520726561637469766174656064820152601960fa1b608482015260a490fd5b61127f612a4a565b61112d565b3461023d57600036600319011261023d576000546040516001600160a01b039091168152602090f35b3461023d57602036600319011261023d5760043560055481101561023d576112d7610100916123f4565b5080549060018060a01b03600182015416906002810154600382015460048301549060058401549260ff600760068701549601541695604051978852602088015260408701526060860152608085015260a084015260c083015261133a816123ea565b60e0820152f35b3461023d57602036600319011261023d5760043560015461012c810180911161022757421015611432575b60ff60005460a81c16600481101561020457600161138a911461250f565b61139760065482106126a4565b6113a760ff60076106fc846123f4565b6113b36106d7826123f4565b60076113be826123f4565b5001805460ff1916600117905560046113db60026111f0846123f4565b500154903360005260036020526040600020816000526020526040600020611404838254612429565b905533600052600360205260406000209060005260205261142e60016040600020019182546125dd565b9055005b61143a612a4a565b61136c565b3461023d57604036600319011261023d57604061145a61239f565b6024358251916114698361248b565b600083526000602080940152816000526002835260018060a01b03906114968286600020541615156124c7565b166000526003825282600020906000528152816000209082516114b88161248b565b8160018454948584520154910190815283519283525190820152f35b3461023d57600036600319011261023d5760015461012c8101809111610227574210156114fd57005b61001c612a4a565b3461023d57600036600319011261023d5761151e612ae0565b600080546001600160a01b0319811682556001600160a01b03167f8be0079c531659141344cd1fd0a4f28419497f9722a3daafe3b4186f6b6457e08280a3005b3461023d57600036600319011261023d576020600654604051908152f35b3461023d57606036600319011261023d5760043560ff811680910361023d5760015461012c810180911161022757421015611773575b60ff60005460a81c1660048110156102045760026115d0911461250f565b600854604051906115e082612453565b8152602081019033825260408101916000835260608201936000855260808301906000825260a08401906000825260c08501906000825260e086019081526101008601916024358352610120870193604435855261014088019542875261016089019a60008c526101808a019a60008c52600754600160401b81101561042a5780600161167092016007556123b5565b9a909a61175d57600b9b518b5560018b019060018060a01b03809151169160018060a01b0319928382541617905560028c019251169082541617905551600389015551600488015551600587015551600686015560ff6007860191511660ff1982541617905551600884015551600983015551600a8201550191519060028210156102045760ff61ff0084549251611707816123ea565b611710816123ea565b60081b1692169061ffff1916171790556008547f27b098c409bbc0189b7f0634fb1ea297c3d7fbc0591c8766af02bbcfd4890f3b6020604051838152a16001810180911161022757600855005b634e487b7160e01b600052600060045260246000fd5b61177b612a4a565b6115b2565b3461023d57602036600319011261023d57600435600481101561023d5761001c906117a9612ae0565b612a22565b3461023d57602036600319011261023d5760043560075481101561023d576117d5906123b5565b50805460018060a01b03806001840154169060028401541692600381015460048201546005830154600684015460ff60078601541691600886015493600987015495600b600a8901549801549a60ff808d169c60081c16996040519b8c5260208c015260408b015260608a0152608089015260a088015260c087015260e08601526101008501526101208401526101408301526002831015610204576101a092610160830152611884816123ea565b610180820152f35b3461023d57602036600319011261023d576001600160a01b036118ad61239f565b1660005260046020526040806000206001815491015482519182526020820152f35b3461023d57600036600319011261023d576020600854604051908152f35b3461023d57600036600319011261023d5760015461012c810180911161022757421015611e79575b60ff60005460a81c166004811015610204576003611933911461250f565b60005b6008548110156114fd5760ff600b61194d836123b5565b5001541660028110156102045760011480611e55575b611976575b61197190612900565b611936565b61197f816123b5565b50600b6040519161198f83612453565b8054835260018060a01b03600182015416602084015260018060a01b0360028201541660408401526003810154606084015260048101546080840152600581015460a0840152600681015460c084015260ff60078201541660e084015260088101546101008401526009810154610120840152600a8101546101408401520154600260ff82161015610204578060ff80921661016084015260081c16611a34816123ea565b6101808201526060810151600081815260026020526040902054611a62906001600160a01b031615156124c7565b60065460001991600091908390835b838110611dcd57505050506001905b80611dc6575b15611dbe57611a94826123f4565b50611b1460405191611aa58361246f565b8054835260018101546001600160a01b03166020840152600281015460408401526003810154606084015260048101546080840152600581015460a08401908152600682015460c085015260079091015460ff16611b02816123ea565b60e084015260c0860151905190612962565b9491611bee575b5050506060830151600081815260026020526040902054909250611b49906001600160a01b031615156124c7565b60065460009260001991908290855b838110611b69575050505091611a80565b816002611b75836123f4565b5001541480611bd7575b80611bb6575b611b98575b611b9390612900565b611b58565b9550925060059050611ba9856123f4565b5001546001949283611b8a565b5060ff6007611bc4836123f4565b50015416611bd1816123ea565b15611b85565b50826005611be4836123f4565b5001541115611b7f565b7fafff965ee361cfca4fcd416286cf19b1388c20d5e89988fe7d49b4583beb0202935060a09294611d32611c34611c2d868a015160808a015190612988565b93846128b6565b916004611c40866123f4565b5001611c4d8582546125dd565b90556004611c5a866123f4565b50015415611da1575b611c6d848b61290f565b97600180881b0360208b015116600180891b036020830151169060005260046020526001604060002001611ca28682546125dd565b905560005260046020526040600020611cbc858254612429565b9055600180881b036020820151169060406001808a1b0360208d0151169101519160005260036020526040600020826000526020526001604060002001611d048782546125dd565b905560005260036020526040600020906000526020526040600020611d2a858254612429565b9055836128b6565b600180861b036020890151168060005260046020526040600020611d57838254612429565b90556000526004602052611d7460016040600020019182546125dd565b9055606087015190604051938452886020850152604084015260608301526080820152a180848080611b1b565b6007611dac866123f4565b5001805460ff19166002179055611c63565b505050611968565b5080611a86565b816002611dd9836123f4565b5001541480611e3e575b80611e1d575b611dfc575b611df790612900565b611a71565b611e0e919550809450600592506123f4565b50015491926001929084611dee565b5060ff6007611e2b836123f4565b50015416611e38816123ea565b15611de9565b50826005611e4b836123f4565b5001541115611de3565b5060ff600b611e63836123b5565b50015460081c16611e73816123ea565b15611963565b611e81612a4a565b611915565b3461023d57602036600319011261023d576004358060005260029081602052611ebd60018060a01b036040600020541615156124c7565b60065460009160001991908290845b838110611ee55760408686825191151582526020820152f35b8187611ef0836123f4565b5001541480611f52575b80611f31575b611f13575b611f0e90612900565b611ecc565b9450925060059050611f24846123f4565b5001546001939283611f05565b5060ff6007611f3f836123f4565b50015416611f4c816123ea565b15611f00565b50826005611f5f836123f4565b5001541115611efa565b3461023d57602036600319011261023d5760043560015461012c810180911161022757421015612056575b60ff60005460a81c1690600482101561020457611fb6600261201f931461250f565b611fc360085482106127c8565b611fcf6104b4826123b5565b611ff560ff600b611fdf846123b5565b50015460081c16611fef816123ea565b15612856565b600b612000826123b5565b5001805461ff00191661010017905560056105096006610553846123b5565b3360005260046020526040600020612038828254612429565b905533600052600460205261142e60016040600020019182546125dd565b61205e612a4a565b611f94565b3461023d5760a036600319011261023d5760043561207f612389565b604435606435906084359260015461012c81018091116102275742101561237c575b60ff60005460a81c1660048110156102045760026120bf911461250f565b6120cc60085486106127c8565b60ff600b6120d9876123b5565b5001541660028110156102045761233b576120fa60ff600b611fdf886123b5565b61210583151561264c565b83156122ea57604051906020908183019060018060a01b038116938483528560408201528660608201528760808201526080815260a081016001600160401b03938282108583111761042a578160405282519020906121638161248b565b601c80915260c07f19457468657265756d205369676e6564204d6573736167653a0a33320000000081850152604051938760005b8481106122d6575050505050603c820152603c815260608101928184109084111761042a576121fd9260405283815191012060ff60076121d68b6123b5565b5001541660086121e58b6123b5565b5001549160096121f48c6123b5565b5001549361299a565b1561227557600b612266878787878761221961055c84866128b6565b6002612224866123b5565b500180546001600160a01b03191690911790556003612242856123b5565b5001556004612250846123b5565b500155600661225e836123b5565b5001556123b5565b5001805460ff19166001179055005b6084906040519062461bcd60e51b82526004820152603460248201527f5468697320706572736f6e20646f6573206e6f74206f776e207468697320626960448201527332171021b0b73737ba1031329037b832b732b21760611b6064820152fd5b838184010151828289010152018890612197565b60405162461bcd60e51b8152602060048201526024808201527f426964207072696365206d757374206265206120706f73697469766520696e7460448201526332b3b2b960e11b6064820152608490fd5b60405162461bcd60e51b8152602060048201526019602482015278151a1a5cc8189a590818d85b9b9bdd081899481bdc195b9959603a1b6044820152606490fd5b612384612a4a565b6120a1565b602435906001600160a01b038216820361023d57565b600435906001600160a01b038216820361023d57565b6007548110156123d4576007600052600c602060002091020190600090565b634e487b7160e01b600052603260045260246000fd5b6003111561020457565b6005548110156123d457600560005260206000209060031b0190600090565b604090600319011261023d576004359060243590565b9190820180921161022757565b336000526004602052604060002061244f348254612429565b9055565b6101a081019081106001600160401b0382111761042a57604052565b61010081019081106001600160401b0382111761042a57604052565b604081019081106001600160401b0382111761042a57604052565b90601f801991011681019081106001600160401b0382111761042a57604052565b156124ce57565b60405162461bcd60e51b8152602060048201526019602482015278151bdad95b881a5cc81b9bdd081a5b881dda1a5d195b1a5cdd603a1b6044820152606490fd5b1561251657565b60405162461bcd60e51b815260206004820152603b60248201527f54686973206f7065726174696f6e206973206e6f7420616c6c6f77656420746f60448201527a20626520706572666f726d6564206174207468697320737461676560281b6064820152608490fd5b6001600160a01b039091168152602081019190915260400190565b156125a157565b60405162461bcd60e51b8152602060048201526014602482015273496e73756666696369656e742062616c616e636560601b6044820152606490fd5b9190820391821161022757565b9081602091031261023d5751801515810361023d5790565b1561260957565b60405162461bcd60e51b815260206004820152601b60248201527a496e73756666696369656e74206c69717569642062616c616e636560281b6044820152606490fd5b1561265357565b60405162461bcd60e51b815260206004820152602360248201527f5175616e74697479206d757374206265206120706f73697469766520696e746560448201526233b2b960e91b6064820152608490fd5b156126ab57565b60405162461bcd60e51b815260206004820152601760248201527613d999995c88125108191bd95cc81b9bdd08195e1a5cdd604a1b6044820152606490fd5b156126f157565b60405162461bcd60e51b815260206004820152601e60248201527f43616e206f6e6c79206d6f6469667920796f7572206f776e206f6666657200006044820152606490fd5b1561273d57565b606460405162461bcd60e51b815260206004820152602060248201527f54686973206f666665722069732063757272656e746c7920696e6163746976656044820152fd5b6001604061244f9260009033825260036020528282208183526020528282206127ab8782546125dd565b905533825260036020528282209082526020522001918254612429565b156127cf57565b60405162461bcd60e51b8152602060048201526017602482015276151a1a5cc8189a5908191bd95cc81b9bdd08195e1a5cdd604a1b6044820152606490fd5b1561281557565b60405162461bcd60e51b81526020600482015260196024820152782cb7ba9030b932903737ba103a3432903134b21037bbb732b960391b6044820152606490fd5b1561285d57565b60405162461bcd60e51b815260206004820152602b60248201527f54686973206f666665722069732063757272656e746c7920776974686472617760448201526a1b881bdc8818db1bdcd95960aa1b6064820152608490fd5b8181029291811591840414171561022757565b33600052600460205260406000206128e28282546125dd565b905533600052600460205261244f6001604060002001918254612429565b60001981146102275760010190565b90612928600561291e846123b5565b50019182546125dd565b90556005612935826123b5565b500154156129435750600190565b61294e600b916123b5565b5001805461ff001916610200179055600090565b9190918281101561297857506000915081908190565b82612982916125dd565b60019291565b9080821015612995575090565b905090565b9290939160ff8116601b8110612a06575b50916080949160ff602094604051948552168484015260408301526060820152600093849182805260015afa156129f95781516001600160a01b039081169116146129f35790565b50600190565b50604051903d90823e3d90fd5b601b9150949194019160ff8311610227579093909160806129ab565b6004811015610204576000805460ff60a81b191660a89290921b60ff60a81b16919091179055565b42600155600080549060ff8260a81c1660049283821015612acd5760018201809211612aba5760a01c60ff16908115612aa757069180831015612a94575050612a9290612a22565b565b634e487b7160e01b825260219052602490fd5b634e487b7160e01b835260128452602483fd5b634e487b7160e01b835260118452602483fd5b634e487b7160e01b835260218452602483fd5b6000546001600160a01b03163303612af457565b606460405162461bcd60e51b815260206004820152602060248201527f4f776e61626c653a2063616c6c6572206973206e6f7420746865206f776e65726044820152fdfea2646970667358221220e1f3744b8bbfca7f2b709a6c3300bc20ddd47fed26fe345a270ce4546660055c64736f6c63430008130033",
  "immutableReferences": {},
  "source": "// SPDX-License-Identifier: MIT\npragma solidity ^0.8.13;\nimport \"../node_modules/@openzeppelin/contracts/token//ERC20/IERC20.sol\";\nimport \"./StateMachine.sol\";\nimport \"./DutchAuctionVerify.sol\";\n\ncontract DutchAuction is Ownable, StateMachine, DutchAuctionVerify {\n    // Events\n    event DepositEth(address _from, uint256 _value);\n    event withdrawEth(address _to, uint256 _value);\n    event DepositToken(address __from, bytes32 _symbol, uint256 _value);\n    event withdrawToken(address to, bytes32 _symbol, uint256 _value);\n\n    // When an offer is created\n    event OfferCreated(\n        uint _offer_id,\n        bytes32 _symbol,\n        uint256 _quantity,\n        uint256 _offer_unit_price_eth\n    );\n\n    // When a bid is created\n    event BidCreated(uint _bid_id);\n\n    // When an offer is matched to a bid\n    event Matched(\n        uint256 _offer_id,\n        uint256 _bid_id,\n        uint256 _eth_price,\n        bytes32 _symbol,\n        uint256 _token_quantity\n    );\n\n    // Whitelisted tokens\n    mapping(bytes32 => address) public whitelistedTokens;\n\n    // ERC20 tokens balance\n    mapping(address => mapping(bytes32 => Wallet)) public accountBalances;\n\n    // ETH balance\n    mapping(address => Wallet) public ethBalances;\n\n    // Token wallet\n    struct Wallet {\n        uint256 liquid; // can be used to create bids/offers freely\n        uint256 locked; // locked in bids and offers\n    }\n\n    // Offer data structure\n    enum OfferStatus {\n        ACTIVE, // When an offer can be matched with a bid\n        WITHDRAWN, // When an offer cannot be matched with a bid\n        CLOSED // When an offer is fully matched with bids\n    }\n    struct Offer {\n        uint256 id;\n        address created_by;\n        bytes32 symbol; // When an offer is created, it is assumed that its been whitelisted\n        uint256 quantity; // Fixed value\n        uint256 remaining_quantity;\n        uint256 offer_unit_price_eth;\n        uint256 creation_time;\n        OfferStatus status;\n    }\n\n    Offer[] public offers;\n    uint256 public offer_count;\n\n    // Bid data structure\n\n    // Bid states\n    enum BidStatusPrimary {\n        HIDDEN, // When the content of the bid is hidden\n        OPENED // When the bid is revealed\n    }\n\n    enum BidStatusSecondary {\n        ACTIVE, // When the bid is able to match with offers\n        WITHDRAWN, // When the bid is withdrawn by the bidder\n        CLOSED // When the bid has been successfully matched with an offer\n    }\n\n    struct Bid {\n        uint256 id;\n        address created_by; // the account who created the bid\n        address bid_owner; // the actual owner of the bid\n        bytes32 symbol; // When an offer is created, it is assumed that its been whitelisted\n        uint256 quantity;\n        uint256 remaining_quantity;\n        uint256 bid_unit_price_eth;\n        uint8 v;\n        bytes32 r;\n        bytes32 s;\n        uint256 creation_time;\n        BidStatusPrimary primary_status;\n        BidStatusSecondary secondary_status;\n    }\n\n    Bid[] public bids;\n    uint256 public bid_count;\n\n    fallback() external payable {\n        ethBalances[msg.sender].liquid += msg.value;\n    }\n\n    receive() external payable {\n        ethBalances[msg.sender].liquid += msg.value;\n    }\n\n    /**\n     * @notice  Get account balance.\n     * @param   _wallet_address  Address of account we wish to check.\n     * @param   _symbol  Token symbol.\n     * @return  Token Wallet object .\n     */\n    function getAccountBalance(\n        address _wallet_address,\n        bytes32 _symbol\n    ) public view tokenInWhitelist(_symbol) returns (Wallet memory) {\n        return accountBalances[_wallet_address][_symbol];\n    }\n\n    /**\n     * @notice  Add a token to whitelist.\n     * @dev     Only contract owner is allowed to perform this action.\n     * @param   _symbol  Token symbol.\n     * @param   _tokenAddress  ERC20 contract address of token.\n     */\n    function addToken(bytes32 _symbol, address _tokenAddress) public onlyOwner {\n        require(\n            whitelistedTokens[_symbol] == address(0),\n            \"Token already exists\"\n        );\n        whitelistedTokens[_symbol] = _tokenAddress;\n    }\n\n    /**\n     * @notice Deposit ETH to contract.\n     */\n    function depositETH()\n        public\n        payable\n        timedTransitions\n        atStage(Stages.DEPOSIT_WITHDRAW)\n    {\n        // msg.sender deposits tokens\n        ethBalances[msg.sender].liquid += msg.value;\n        emit DepositEth(msg.sender, msg.value);\n    }\n\n    /**\n     * @notice Withdraw ETH from contract, must have enough balance.\n     * @dev _amount > 0\n     * @param   _amount  Amount to withdraw > 0.\n     */\n    function withdrawETH(\n        uint256 _amount\n    ) external payable timedTransitions atStage(Stages.DEPOSIT_WITHDRAW) {\n        // account has enough money\n        require(\n            ethBalances[msg.sender].liquid >= _amount,\n            \"Insufficient balance\"\n        );\n\n        ethBalances[msg.sender].liquid -= _amount;\n\n        (bool success, ) = msg.sender.call{value: _amount}(\"\");\n        require(success, \"Failed to send funds\");\n\n        emit withdrawEth(msg.sender, _amount);\n    }\n\n    /**\n     * @notice  Deposit ERC20 token.\n     * @dev     _amount > 0 and _symbol must be in whitelist.\n     * @param   _amount  Deposit amount.\n     * @param   _symbol  Token Symbol.\n     */\n    function depositTokens(\n        uint256 _amount,\n        bytes32 _symbol\n    )\n        public\n        timedTransitions\n        atStage(Stages.DEPOSIT_WITHDRAW)\n        tokenInWhitelist(_symbol)\n    {\n        require(_amount > 0, \"Can only deposit positive integer amount\");\n        // check if token exists in whitelist\n        IERC20 token = IERC20(whitelistedTokens[_symbol]);\n        require(token.balanceOf(msg.sender) >= _amount, \"Insufficient balance\");\n        require(\n            token.allowance(msg.sender, address(this)) >= _amount,\n            \"TokenDeposit: insufficient allowance\"\n        );\n\n        require(\n            token.transferFrom(msg.sender, address(this), _amount),\n            \"Token transfer failed\"\n        );\n        // Update the depositor's account balance\n        accountBalances[msg.sender][_symbol].liquid += _amount;\n\n        emit DepositToken(msg.sender, _symbol, _amount);\n    }\n\n    /**\n     * @notice  Withdraw ERC20 tokens.\n     * @param   _amount  Token amount.\n     * @param   _symbol  Token symbol.\n     */\n    function withdrawTokens(\n        uint256 _amount,\n        bytes32 _symbol\n    )\n        public\n        timedTransitions\n        atStage(Stages.DEPOSIT_WITHDRAW)\n        tokenInWhitelist(_symbol)\n    {\n        require(_amount > 0, \"Can only withdraw positive integer amount\");\n        require(\n            accountBalances[msg.sender][_symbol].liquid >= _amount,\n            \"Insufficient liquid balance\"\n        );\n        address tokenAddress = whitelistedTokens[_symbol];\n\n        IERC20 token = IERC20(tokenAddress);\n        accountBalances[msg.sender][_symbol].liquid -= _amount;\n\n        require(\n            token.transfer(msg.sender, _amount),\n            \"Unable to transfer token\"\n        );\n        emit withdrawToken(msg.sender, _symbol, _amount);\n    }\n\n    // Offer Functions\n\n    /// @notice Public function to create an offer\n    /// @notice The message sender must\n    /// @param _symbol The ERC20 token symbol\n    /// @param _quantity Quantity of token\n    /// @param _offer_unit_price_eth Unit price of each token\n    function createOffer(\n        bytes32 _symbol,\n        uint256 _quantity,\n        uint256 _offer_unit_price_eth\n    )\n        public\n        timedTransitions\n        atStage(Stages.ACCEPTING_OFFERS)\n        tokenInWhitelist(_symbol)\n        sufficientLiquidBalance(_symbol, _quantity)\n    {\n        require(_quantity > 0, \"Quantity must be a positive integer\");\n        require(\n            _offer_unit_price_eth > 0,\n            \"Offer price must be a positive integer\"\n        );\n\n        // create offer\n        Offer memory offer = Offer(\n            offer_count,\n            msg.sender,\n            _symbol,\n            _quantity,\n            _quantity,\n            _offer_unit_price_eth,\n            block.timestamp,\n            OfferStatus.ACTIVE\n        );\n\n        _lockAsset(_symbol, _quantity);\n        offers.push(offer);\n\n        emit OfferCreated(\n            offer_count,\n            _symbol,\n            _quantity,\n            _offer_unit_price_eth\n        );\n        offer_count += 1;\n    }\n\n    /**\n     * @notice Decrease offer price. New price must be less than current price.\n     * @dev     _new_unit_price > 0.\n     * @param   _offer_id  Offer ID.\n     * @param   _new_unit_price  New unit price.\n     */\n    function decreaseOfferPrice(\n        uint256 _offer_id,\n        uint256 _new_unit_price\n    )\n        public\n        timedTransitions\n        atStage(Stages.ACCEPTING_OFFERS)\n        offerExists(_offer_id)\n        offerOwner(_offer_id)\n        offerIsActive(_offer_id)\n    {\n        require(_new_unit_price > 0, \"New price must be a positive integer\");\n        require(\n            _new_unit_price < offers[_offer_id].offer_unit_price_eth,\n            \"New unit price should be lower than current unit price\"\n        );\n        offers[_offer_id].offer_unit_price_eth = _new_unit_price;\n    }\n\n    /**\n     * @notice  Change offer state from WITHDRAWN to ACTIVE.\n     * @param   _offer_id  Offer id.\n     */\n    function reactivateOffer(\n        uint256 _offer_id\n    )\n        public\n        timedTransitions\n        atStage(Stages.ACCEPTING_OFFERS)\n        offerExists(_offer_id)\n        offerIsWithdrawn(_offer_id)\n        offerOwner(_offer_id)\n        sufficientLiquidBalance(\n            offers[_offer_id].symbol,\n            offers[_offer_id].quantity\n        )\n    {\n        offers[_offer_id].status = OfferStatus.ACTIVE;\n        _lockAsset(\n            offers[_offer_id].symbol,\n            offers[_offer_id].remaining_quantity\n        );\n    }\n\n    /**\n     * @notice  Change an offer state from ACTIVE to WITHDRAW.\n     * @param   _offer_id Offer ID .\n     */\n    function withdrawOffer(\n        uint256 _offer_id\n    )\n        public\n        timedTransitions\n        atStage(Stages.ACCEPTING_OFFERS)\n        offerExists(_offer_id)\n        offerIsActive(_offer_id)\n        offerOwner(_offer_id)\n    {\n        // Change the status of an offer to withdrawn\n        offers[_offer_id].status = OfferStatus.WITHDRAWN;\n        // Update move locked fund in offer to liquid balance\n        _freeAsset(\n            offers[_offer_id].symbol,\n            offers[_offer_id].remaining_quantity\n        );\n    }\n\n    /**\n     * @notice  Move token from liquid to locked.\n     * @param   _symbol  Token symbol.\n     * @param   _quantity  Quantity.\n     */\n    function _lockAsset(bytes32 _symbol, uint256 _quantity) private {\n        // Only call as private function\n        accountBalances[msg.sender][_symbol].liquid -= _quantity;\n        accountBalances[msg.sender][_symbol].locked += _quantity;\n    }\n\n    /**\n     * @notice  Move token from liquid to locked.\n     * @param   _symbol  Token symbol.\n     * @param   _quantity  Quantity.\n     */\n    function _freeAsset(bytes32 _symbol, uint256 _quantity) private {\n        // Only call as private function\n        accountBalances[msg.sender][_symbol].liquid += _quantity;\n        accountBalances[msg.sender][_symbol].locked -= _quantity;\n    }\n\n    /**\n     * @notice  Move liquid ETH to locked.\n     * @param   _amount  Token amount.\n     */\n    function _lockEth(uint256 _amount) private {\n        ethBalances[msg.sender].liquid -= _amount;\n        ethBalances[msg.sender].locked += _amount;\n    }\n\n    /**\n     * @notice  Move locked ETH to liquid.\n     * @param   _amount  Token amount.\n     */\n    function _freeEth(uint256 _amount) private {\n        ethBalances[msg.sender].liquid += _amount;\n        ethBalances[msg.sender].locked -= _amount;\n    }\n\n    /**\n     * @notice  Change offer state to CLOSED\n     * @dev     Offer has to first be active.\n     * @param   _offer_id  .\n     */\n    function _closeOffer(uint256 _offer_id) private offerIsActive(_offer_id) {\n        // set offer status to close\n        offers[_offer_id].status = OfferStatus.CLOSED;\n    }\n\n    /**\n     * @notice  .\n     * @dev     .\n     */\n    function createBid(\n        uint8 _v,\n        bytes32 _r,\n        bytes32 _s\n    ) public timedTransitions atStage(Stages.ACCEPTING_BIDS) {\n        // create a hidden bid\n        Bid memory bid = Bid(\n            bid_count,\n            msg.sender,\n            address(0),\n            bytes32(0), // When an offer is created, it is not assumed that the token been whitelisted\n            0,\n            0,\n            0,\n            _v,\n            _r,\n            _s,\n            block.timestamp,\n            BidStatusPrimary.HIDDEN,\n            BidStatusSecondary.ACTIVE\n        );\n\n        bids.push(bid);\n        emit BidCreated(bid_count);\n        bid_count += 1;\n    }\n\n    /**\n     * @notice  Change bid state from ACTIVE to WITHDRAW.\n     * @dev     Bid second state has to be ACTIVE.\n     * @param   _bid_id  Bid ID.\n     */\n    function withdrawBid(\n        uint256 _bid_id\n    )\n        public\n        timedTransitions\n        atStage(Stages.ACCEPTING_BIDS)\n        bidExists(_bid_id)\n        bidOwner(_bid_id)\n        bidIsActive(_bid_id)\n    {\n        // update liquid balance\n        bids[_bid_id].secondary_status = BidStatusSecondary.WITHDRAWN;\n        // Update move locked fund in offer to liquid balance\n        _freeEth(\n            bids[_bid_id].bid_unit_price_eth * bids[_bid_id].remaining_quantity\n        );\n    }\n\n    /**\n     * @notice  Change bid secondary state from WITHDRAWN to ACTIVE.\n     * @dev     Bid current state has to be WITHDRAWN.\n     * @param   _bid_id  Bid ID.\n     */\n    function reactivateBid(\n        uint256 _bid_id\n    )\n        public\n        timedTransitions\n        atStage(Stages.ACCEPTING_BIDS)\n        bidExists(_bid_id)\n        bidOwner(_bid_id)\n        bidIsWithdrawn(_bid_id)\n        sufficientEthLiquidBalance(\n            bids[_bid_id].bid_unit_price_eth * bids[_bid_id].quantity\n        )\n    {\n        bids[_bid_id].secondary_status = BidStatusSecondary.ACTIVE;\n        _lockEth(\n            bids[_bid_id].bid_unit_price_eth * bids[_bid_id].remaining_quantity\n        );\n    }\n\n    /**\n     * @notice  Change bid primary state from HIDDEN to OPENED.\n     * @param   _bid_id  .\n     */\n    function openBid(\n        uint256 _bid_id,\n        address _bid_owner,\n        bytes32 _symbol,\n        uint256 _quantity,\n        uint256 _bid_unit_price_eth\n    )\n        public\n        timedTransitions\n        atStage(Stages.ACCEPTING_BIDS)\n        bidExists(_bid_id)\n        bidIsHidden(_bid_id)\n        bidIsActive(_bid_id)\n    {\n        require(_quantity > 0, \"Quantity must be a positive integer\");\n        require(\n            _bid_unit_price_eth > 0,\n            \"Bid price must be a positive integer\"\n        );\n        bytes32 prefixed_hash_message = _hashBid(\n            _bid_owner,\n            _symbol,\n            _quantity,\n            _bid_unit_price_eth\n        );\n\n        bool result = _verifyMessage(\n            _bid_owner,\n            prefixed_hash_message,\n            bids[_bid_id].v,\n            bids[_bid_id].r,\n            bids[_bid_id].s\n        );\n        // verify message\n        require(result, \"This person does not own this bid. Cannot be opened.\");\n\n        // set status to open\n        _lockEth(_bid_unit_price_eth * _quantity);\n        // Fill in rest of bid\n        bids[_bid_id].bid_owner = _bid_owner;\n        bids[_bid_id].symbol = _symbol;\n        bids[_bid_id].quantity = _quantity;\n        bids[_bid_id].bid_unit_price_eth = _bid_unit_price_eth;\n        // Set primary status to OPENED\n        bids[_bid_id].primary_status = BidStatusPrimary.OPENED;\n    }\n\n    /**\n     * @notice  Transfer ERC20 token from seller to bidder intra contract.\n     * @param   _seller  Seller address.\n     * @param   _buyer  Bidder address.\n     * @param   _symbol  Token symbol.\n     * @param   _quantity  Quantity.\n     */\n    function _transferTokenFromSellerToBuyer(\n        address _seller,\n        address _buyer,\n        bytes32 _symbol,\n        uint256 _quantity\n    ) private {\n        // decrease (not free, but remove) locked token quantity in seller\n        accountBalances[_seller][_symbol].locked -= _quantity;\n        // increase liquid amount to buyer\n        accountBalances[_buyer][_symbol].liquid += _quantity;\n    }\n\n    /**\n     * @notice   Transfer ETH token from seller to bidder intra contract.\n     * @param   _seller  Seller address.\n     * @param   _buyer  Bidder address.\n     * @param   _eth_quantity Total ETH quantity to be transfered .\n     */\n    function _transferEthFromBuyerToSeller(\n        address _buyer,\n        address _seller,\n        uint256 _eth_quantity // token amount * unit price\n    ) private {\n        // decrease (not free, but remove) locked ETH quantity in buyer\n        // increase liquid ETH amount to buyer\n        ethBalances[_buyer].locked -= _eth_quantity; // buyer pay seller\n        ethBalances[_seller].liquid += _eth_quantity;\n    }\n\n    /**\n     * @notice  Update Offer remaining token quantity.\n     * @param   _offer_id  Offer ID.\n     * @param   _deduct_token_amount  Number of tokens to remove from offer after matching.\n     */\n    function _updateOfferTokenBalance(\n        uint256 _offer_id,\n        uint256 _deduct_token_amount\n    ) private {\n        // update remaining balance\n        offers[_offer_id].remaining_quantity -= _deduct_token_amount;\n        // update state if remaining balance is zero\n        if (offers[_offer_id].remaining_quantity == 0) {\n            // update state\n            offers[_offer_id].status = OfferStatus.CLOSED;\n        }\n    }\n\n    /**\n     * @notice  Update Offer remaining token quantity.\n     * @param   _bid_id  Bid ID.\n     * @param   _deduct_token_amount  Number of tokens to remove from offer after matching.\n     * @return  bool  True if bid secondary state still ACTIVE. False if not.\n     */\n    function _updateBidTokenBalance(\n        uint256 _bid_id,\n        uint256 _deduct_token_amount\n    ) private returns (bool) {\n        // update remaining balance\n        bids[_bid_id].remaining_quantity -= _deduct_token_amount;\n\n        // update state if remaining balance is zero\n        if (bids[_bid_id].remaining_quantity == 0) {\n            // update state\n            bids[_bid_id].secondary_status = BidStatusSecondary.CLOSED;\n            return false;\n        }\n        return true;\n    }\n\n    /**\n     * @notice  Match offer and bid price to determine the final agreeable price.\n     * @param   _bid_eth_price  Bid price in ETH.\n     * @param   _offer_eth_price  Offer price in ETH.\n     * @return  bool  True if offer price <= bid price. False if otherwise.\n     * @return  uint256  Matched offer price.\n     * @return  uint256  Spread between offer and bid price, this amount is refunded to the bidder.\n     */\n    function _matchPrice(\n        uint256 _bid_eth_price,\n        uint256 _offer_eth_price\n    ) private pure returns (bool, uint256, uint256) {\n        // check if bid price is lower than offer price, if it is, the we have a match\n        if (_bid_eth_price >= _offer_eth_price) {\n            return (\n                true,\n                _offer_eth_price,\n                (_bid_eth_price - _offer_eth_price)\n            ); // price deducted\n        }\n        return (false, 0, 0);\n    }\n\n    /**\n     * @notice  Match the amount of ERC20 tokens the bidder can purchase.\n     * @param   _bid_quantity  Bid token quantity.\n     * @param   _offer_quantity  Offer token quantity.\n     * @return  uint256  min(_bid_quantity, _offer_quantity).\n     */\n    function _matchTokenQuantity(\n        uint256 _bid_quantity,\n        uint256 _offer_quantity\n    ) private pure returns (uint256) {\n        // returns the maximum amount we can match i.e. max amount we can deduct from both offer and bid\n        if (_bid_quantity >= _offer_quantity) {\n            return _offer_quantity;\n        }\n        return _bid_quantity;\n    }\n\n    /**\n     * @notice  If bid price is higher than offer price, the excess is refunded to the bidder.\n     * @param   _excess_amount Excess amount .\n     * @param   _buyer  Bidder address.\n     */\n    function _refundExcessEth(uint256 _excess_amount, address _buyer) private {\n        ethBalances[_buyer].liquid += _excess_amount;\n        ethBalances[_buyer].locked -= _excess_amount;\n    }\n\n    /**\n     * @notice  Find the cheapest offer given symbol.\n     * @dev     Symbol is assumed to exist.\n     * @param   _symbol  Token Symbol.\n     * @return  bool True if found, false otherwise .\n     * @return  uint256  Offer ID if found, 0 otherwise.\n     */\n    function findCheapestOffer(\n        bytes32 _symbol\n    ) public view tokenInWhitelist(_symbol) returns (bool, uint256) {\n        // pass\n        uint256 min_price = type(uint256).max;\n        uint256 min_offer_id = type(uint256).max;\n        bool found = false;\n\n        for (\n            uint256 offer_index = 0;\n            offer_index < offer_count;\n            offer_index++\n        ) {\n            if (\n                offers[offer_index].symbol == _symbol && // match symbol\n                offers[offer_index].offer_unit_price_eth <= min_price && // offer below bid price\n                offers[offer_index].status == OfferStatus.ACTIVE // offer is still active\n            ) {\n                min_price = offers[offer_index].offer_unit_price_eth;\n                min_offer_id = offer_index;\n                found = true;\n            }\n        }\n\n        return (found, min_offer_id);\n    }\n\n    /**\n     * @notice  Match offer.\n     * @dev     After matchOffers() ends, the state is updated to DEPOSITE_WITHDRAW.\n     */\n    function matchOffers()\n        public\n        timedTransitions\n        atStage(Stages.MATCHING)\n        transitionNext\n    {\n        for (uint bid_index = 0; bid_index < bid_count; bid_index++) {\n            // if bid is active and opened\n            if (\n                bids[bid_index].primary_status == BidStatusPrimary.OPENED &&\n                bids[bid_index].secondary_status == BidStatusSecondary.ACTIVE\n            ) {\n                Bid memory curr_bid = bids[bid_index];\n\n                // while a cheap offer exist\n                (bool cheap_exist, uint256 offer_index) = findCheapestOffer(\n                    curr_bid.symbol\n                );\n\n                bool bid_active = true;\n                while (cheap_exist && bid_active) {\n                    Offer memory curr_offer = offers[offer_index];\n\n                    // match price\n                    (\n                        bool price_match,\n                        uint agreed_unit_price,\n                        uint excess\n                    ) = _matchPrice(\n                            curr_bid.bid_unit_price_eth,\n                            curr_offer.offer_unit_price_eth\n                        );\n\n                    if (price_match) {\n                        // if matched\n                        uint256 deduct_token_quantity = _matchTokenQuantity(\n                            curr_bid.remaining_quantity,\n                            curr_offer.remaining_quantity\n                        );\n\n                        uint256 total_price_eth = deduct_token_quantity *\n                            agreed_unit_price; // agreed eth price is always smaller\n\n                        // update curr offer token balance\n                        _updateOfferTokenBalance(\n                            offer_index,\n                            deduct_token_quantity\n                        );\n\n                        // update curr bid token balance\n                        bid_active = _updateBidTokenBalance(\n                            bid_index,\n                            deduct_token_quantity\n                        );\n\n                        // Transfer token between seller and buyer\n                        _transferEthFromBuyerToSeller(\n                            curr_bid.created_by, // buyer\n                            curr_offer.created_by, // seller\n                            total_price_eth\n                        );\n                        // Transfer eth between seller and buyer\n                        _transferTokenFromSellerToBuyer(\n                            curr_offer.created_by, //seller\n                            curr_bid.created_by, // buyer\n                            curr_offer.symbol,\n                            deduct_token_quantity\n                        );\n\n                        // if bid price smaller than\n                        _refundExcessEth(\n                            deduct_token_quantity * excess,\n                            curr_bid.created_by\n                        );\n\n                        emit Matched(\n                            offer_index,\n                            bid_index,\n                            total_price_eth,\n                            curr_bid.symbol,\n                            deduct_token_quantity\n                        );\n                    }\n                    // reset check\n                    (cheap_exist, offer_index) = findCheapestOffer(\n                        curr_bid.symbol\n                    );\n                }\n            }\n        }\n    }\n\n    modifier tokenInWhitelist(bytes32 _symbol) {\n        require(\n            whitelistedTokens[_symbol] != address(0),\n            \"Token is not in whitelist\"\n        );\n        _;\n    }\n\n    modifier sufficientLiquidBalance(bytes32 _symbol, uint _amount) {\n        require(\n            accountBalances[msg.sender][_symbol].liquid >= _amount,\n            \"Insufficient liquid balance\"\n        );\n        _;\n    }\n\n    modifier sufficientEthLiquidBalance(uint256 _eth_quantity) {\n        require(\n            ethBalances[msg.sender].liquid >= _eth_quantity,\n            \"Insufficient liquid ETH balance\"\n        );\n        _;\n    }\n\n    // Offer modifiers\n    modifier offerOwner(uint256 _offer_id) {\n        require(\n            offers[_offer_id].created_by == msg.sender,\n            \"Can only modify your own offer\"\n        );\n        _;\n    }\n\n    modifier offerExists(uint256 _offer_id) {\n        require(_offer_id < offer_count, \"Offer ID does not exist\");\n        _;\n    }\n\n    // modifier to check if an offer is active\n    modifier offerIsActive(uint256 _offer_id) {\n        require(\n            offers[_offer_id].status == OfferStatus.ACTIVE,\n            \"This offer is currently inactive\"\n        );\n        _;\n    }\n\n    //\n    modifier offerIsWithdrawn(uint256 _offer_id) {\n        require(\n            offers[_offer_id].status == OfferStatus.WITHDRAWN,\n            \"This offer is currently not WITHDRAWN so it cannot be reactivated\"\n        );\n        _;\n    }\n\n    // bid modifiers\n    modifier bidOwner(uint256 _bid_id) {\n        require(\n            msg.sender == bids[_bid_id].created_by,\n            \"You are not the bid owner\"\n        );\n        _;\n    }\n\n    modifier bidExists(uint256 _bid_id) {\n        require(_bid_id < bid_count, \"This bid does not exist\");\n        _;\n    }\n    modifier bidIsActive(uint256 _bid_id) {\n        require(\n            bids[_bid_id].secondary_status == BidStatusSecondary.ACTIVE,\n            \"This offer is currently withdrawn or closed\"\n        );\n        _;\n    }\n\n    modifier bidIsWithdrawn(uint256 _bid_id) {\n        require(\n            bids[_bid_id].secondary_status == BidStatusSecondary.WITHDRAWN,\n            \"This bid is currently not WITHDRAWN so it cannot be reactivated\"\n        );\n        _;\n    }\n\n    modifier bidIsHidden(uint256 _bid_id) {\n        require(\n            bids[_bid_id].primary_status == BidStatusPrimary.HIDDEN,\n            \"This bid cannot be opened\"\n        );\n        _;\n    }\n\n    modifier bidIsOpened(uint256 _bid_id) {\n        require(\n            bids[_bid_id].primary_status == BidStatusPrimary.OPENED,\n            \"This bid cannot be hidden once opened\"\n        );\n        _;\n    }\n}\n",
  "sourcePath": "/Users/adamma/Desktop/COMP6451/dutch_extension/contracts/DutchAuction.sol",
  "compiler": {
    "name": "solc",
    "version": "0.8.19+commit.7dd6d404.Emscripten.clang"
  },
  "schemaVersion": "3.4.13",
  "updatedAt": "2023-04-07T12:16:52.394Z",
  "devdoc": {
    "kind": "dev",
    "methods": {
      "addToken(bytes32,address)": {
        "details": "Only contract owner is allowed to perform this action.",
        "params": {
          "_symbol": "Token symbol.",
          "_tokenAddress": "ERC20 contract address of token."
        }
      },
      "createBid(uint8,bytes32,bytes32)": {
        "details": "."
      },
      "createOffer(bytes32,uint256,uint256)": {
        "params": {
          "_offer_unit_price_eth": "Unit price of each token",
          "_quantity": "Quantity of token",
          "_symbol": "The ERC20 token symbol"
        }
      },
      "decreaseOfferPrice(uint256,uint256)": {
        "details": "_new_unit_price > 0.",
        "params": {
          "_new_unit_price": "New unit price.",
          "_offer_id": "Offer ID."
        }
      },
      "depositTokens(uint256,bytes32)": {
        "details": "_amount > 0 and _symbol must be in whitelist.",
        "params": {
          "_amount": "Deposit amount.",
          "_symbol": "Token Symbol."
        }
      },
      "findCheapestOffer(bytes32)": {
        "details": "Symbol is assumed to exist.",
        "params": {
          "_symbol": "Token Symbol."
        },
        "returns": {
          "_0": "bool True if found, false otherwise .",
          "_1": "uint256  Offer ID if found, 0 otherwise."
        }
      },
      "getAccountBalance(address,bytes32)": {
        "params": {
          "_symbol": "Token symbol.",
          "_wallet_address": "Address of account we wish to check."
        },
        "returns": {
          "_0": "Token Wallet object ."
        }
      },
      "matchOffers()": {
        "details": "After matchOffers() ends, the state is updated to DEPOSITE_WITHDRAW."
      },
      "openBid(uint256,address,bytes32,uint256,uint256)": {
        "params": {
          "_bid_id": "."
        }
      },
      "owner()": {
        "details": "Returns the address of the current owner."
      },
      "reactivateBid(uint256)": {
        "details": "Bid current state has to be WITHDRAWN.",
        "params": {
          "_bid_id": "Bid ID."
        }
      },
      "reactivateOffer(uint256)": {
        "params": {
          "_offer_id": "Offer id."
        }
      },
      "renounceOwnership()": {
        "details": "Leaves the contract without owner. It will not be possible to call `onlyOwner` functions anymore. Can only be called by the current owner. NOTE: Renouncing ownership will leave the contract without an owner, thereby removing any functionality that is only available to the owner."
      },
      "transferOwnership(address)": {
        "details": "Transfers ownership of the contract to a new account (`newOwner`). Can only be called by the current owner."
      },
      "withdrawBid(uint256)": {
        "details": "Bid second state has to be ACTIVE.",
        "params": {
          "_bid_id": "Bid ID."
        }
      },
      "withdrawETH(uint256)": {
        "details": "_amount > 0",
        "params": {
          "_amount": "Amount to withdraw > 0."
        }
      },
      "withdrawOffer(uint256)": {
        "params": {
          "_offer_id": "Offer ID ."
        }
      },
      "withdrawTokens(uint256,bytes32)": {
        "params": {
          "_amount": "Token amount.",
          "_symbol": "Token symbol."
        }
      }
    },
    "version": 1
  },
  "userdoc": {
    "kind": "user",
    "methods": {
      "addToken(bytes32,address)": {
        "notice": "Add a token to whitelist."
      },
      "createBid(uint8,bytes32,bytes32)": {
        "notice": "."
      },
      "createOffer(bytes32,uint256,uint256)": {
        "notice": "Public function to create an offerThe message sender must"
      },
      "decreaseOfferPrice(uint256,uint256)": {
        "notice": "Decrease offer price. New price must be less than current price."
      },
      "depositETH()": {
        "notice": "Deposit ETH to contract."
      },
      "depositTokens(uint256,bytes32)": {
        "notice": "Deposit ERC20 token."
      },
      "findCheapestOffer(bytes32)": {
        "notice": "Find the cheapest offer given symbol."
      },
      "getAccountBalance(address,bytes32)": {
        "notice": "Get account balance."
      },
      "matchOffers()": {
        "notice": "Match offer."
      },
      "openBid(uint256,address,bytes32,uint256,uint256)": {
        "notice": "Change bid primary state from HIDDEN to OPENED."
      },
      "probeStage()": {
        "notice": "Used to check for state update."
      },
      "reactivateBid(uint256)": {
        "notice": "Change bid secondary state from WITHDRAWN to ACTIVE."
      },
      "reactivateOffer(uint256)": {
        "notice": "Change offer state from WITHDRAWN to ACTIVE."
      },
      "withdrawBid(uint256)": {
        "notice": "Change bid state from ACTIVE to WITHDRAW."
      },
      "withdrawETH(uint256)": {
        "notice": "Withdraw ETH from contract, must have enough balance."
      },
      "withdrawOffer(uint256)": {
        "notice": "Change an offer state from ACTIVE to WITHDRAW."
      },
      "withdrawTokens(uint256,bytes32)": {
        "notice": "Withdraw ERC20 tokens."
      }
    },
    "version": 1
  }
}