{
  "contractName": "StateMachine",
  "abi": [
    {
      "inputs": [],
      "stateMutability": "nonpayable",
      "type": "constructor"
    },
    {
      "anonymous": false,
      "inputs": [
        {
          "indexed": true,
          "internalType": "address",
          "name": "previousOwner",
          "type": "address"
        },
        {
          "indexed": true,
          "internalType": "address",
          "name": "newOwner",
          "type": "address"
        }
      ],
      "name": "OwnershipTransferred",
      "type": "event"
    },
    {
      "inputs": [],
      "name": "lastModifiedTime",
      "outputs": [
        {
          "internalType": "uint256",
          "name": "",
          "type": "uint256"
        }
      ],
      "stateMutability": "view",
      "type": "function"
    },
    {
      "inputs": [],
      "name": "owner",
      "outputs": [
        {
          "internalType": "address",
          "name": "",
          "type": "address"
        }
      ],
      "stateMutability": "view",
      "type": "function"
    },
    {
      "inputs": [],
      "name": "renounceOwnership",
      "outputs": [],
      "stateMutability": "nonpayable",
      "type": "function"
    },
    {
      "inputs": [],
      "name": "stage",
      "outputs": [
        {
          "internalType": "enum StateMachine.Stages",
          "name": "",
          "type": "uint8"
        }
      ],
      "stateMutability": "view",
      "type": "function"
    },
    {
      "inputs": [
        {
          "internalType": "address",
          "name": "newOwner",
          "type": "address"
        }
      ],
      "name": "transferOwnership",
      "outputs": [],
      "stateMutability": "nonpayable",
      "type": "function"
    },
    {
      "inputs": [],
      "name": "probeStage",
      "outputs": [],
      "stateMutability": "nonpayable",
      "type": "function"
    },
    {
      "inputs": [
        {
          "internalType": "enum StateMachine.Stages",
          "name": "_stage",
          "type": "uint8"
        }
      ],
      "name": "godModeSetStage",
      "outputs": [],
      "stateMutability": "nonpayable",
      "type": "function"
    }
  ],
  "bytecode": "0x6080806040523461006f576000543360018060a01b0382167f8be0079c531659141344cd1fd0a4f28419497f9722a3daafe3b4186f6b6457e0600080a3426001556001600160a81b0319163360ff60a01b191617600160a21b1760ff60a81b19166000556103dd90816100758239f35b600080fdfe608060405260048036101561001357600080fd5b600090813560e01c80634f80028b146102e9578063715018a61461028f5780637a05a11e146101bf5780638da5cb5b14610198578063a5a3ff931461017a578063c040e6b8146101365763f2fde38b1461006c57600080fd5b34610132576020366003190112610132576001600160a01b038135818116929083900361012e5761009b61034f565b82156100db575082546001600160a01b0319811683178455167f8be0079c531659141344cd1fd0a4f28419497f9722a3daafe3b4186f6b6457e08380a380f35b60849060206040519162461bcd60e51b8352820152602660248201527f4f776e61626c653a206e6577206f776e657220697320746865207a65726f206160448201526564647265737360d01b6064820152fd5b8380fd5b5080fd5b50903461017757806003193601126101775760ff815460a81c16604051918382101561016457602083838152f35b634e487b7160e01b815260218452602490fd5b80fd5b82346101775780600319360112610177576020600154604051908152f35b8234610177578060031936011261017757546040516001600160a01b039091168152602090f35b503461013257816003193601126101325760015461012c810180911161027c574210156101ea575080f35b9042600155805460ff8160a81c16908382101561026957600182018092116102565760a01c60ff169081156102435706828110156102305761022d919250610311565b80f35b506021602492634e487b7160e01b835252fd5b634e487b7160e01b835260128452602483fd5b634e487b7160e01b835260118452602483fd5b634e487b7160e01b835260218452602483fd5b634e487b7160e01b835260118252602483fd5b82346101775780600319360112610177576102a861034f565b80546001600160a01b03198116825581906001600160a01b03167f8be0079c531659141344cd1fd0a4f28419497f9722a3daafe3b4186f6b6457e08280a380f35b5034610132576020366003190112610132578035908110156101325761022d9061031161034f565b6004811015610339576000805460ff60a81b191660a89290921b60ff60a81b16919091179055565b634e487b7160e01b600052602160045260246000fd5b6000546001600160a01b0316330361036357565b606460405162461bcd60e51b815260206004820152602060248201527f4f776e61626c653a2063616c6c6572206973206e6f7420746865206f776e65726044820152fdfea26469706673582212204885f46c8a3fb062ede3941623492b25ad96c75ea94939fe64f928079a53802b64736f6c63430008130033",
  "immutableReferences": {},
  "source": "// SPDX-License-Identifier: MIT\npragma solidity ^0.8.13;\n\nimport \"../node_modules/@openzeppelin/contracts/access/Ownable.sol\";\n\ncontract StateMachine is Ownable {\n    enum Stages {\n        DEPOSIT_WITHDRAW,\n        ACCEPTING_OFFERS,\n        ACCEPTING_BIDS,\n        MATCHING\n    }\n\n    /**\n     * @notice  Used to check for state update.\n     */\n    function probeStage() public timedTransitions {}\n\n    function godModeSetStage(Stages _stage) public onlyOwner {\n        // used for testing\n        stage = _stage;\n    }\n\n    uint8 num_stages = 4;\n    Stages public stage;\n    uint256 public lastModifiedTime;\n\n    constructor() {\n        lastModifiedTime = block.timestamp;\n        // set current state\n        stage = Stages.DEPOSIT_WITHDRAW;\n    }\n\n    modifier atStage(Stages _stage) {\n        require(\n            stage == _stage,\n            \"This operation is not allowed to be performed at this stage\"\n        );\n        _;\n    }\n\n    function nextStage() private {\n        // update last modified time\n        lastModifiedTime = block.timestamp;\n        stage = Stages((uint(stage) + 1) % num_stages); // 4 stages totaly, will continue rotating\n    }\n\n    // Perform timed transitions. Be sure to mention\n    // this modifier first, otherwise the guards\n    // will not take the new stage into account.\n    modifier timedTransitions() {\n        if (block.timestamp >= lastModifiedTime + 5 minutes) nextStage();\n        _;\n    }\n\n    // This modifier goes to the next stage\n    // after the function is done.\n    // In Dutch auction, used after matching is done\n    modifier transitionNext() {\n        _;\n        nextStage();\n    }\n}\n",
  "sourcePath": "/Users/adamma/Desktop/COMP6451/dutch_extension/contracts/StateMachine.sol",
  "compiler": {
    "name": "solc",
    "version": "0.8.19+commit.7dd6d404.Emscripten.clang"
  },
  "schemaVersion": "3.4.13",
  "updatedAt": "2023-04-07T12:15:28.852Z",
  "devdoc": {
    "kind": "dev",
    "methods": {
      "owner()": {
        "details": "Returns the address of the current owner."
      },
      "renounceOwnership()": {
        "details": "Leaves the contract without owner. It will not be possible to call `onlyOwner` functions anymore. Can only be called by the current owner. NOTE: Renouncing ownership will leave the contract without an owner, thereby removing any functionality that is only available to the owner."
      },
      "transferOwnership(address)": {
        "details": "Transfers ownership of the contract to a new account (`newOwner`). Can only be called by the current owner."
      }
    },
    "version": 1
  },
  "userdoc": {
    "kind": "user",
    "methods": {
      "probeStage()": {
        "notice": "Used to check for state update."
      }
    },
    "version": 1
  }
}